{
  "_format": "hh-sol-artifact-1",
  "contractName": "MajFactory",
  "sourceName": "contracts/Maj_Factory.sol",
  "abi": [
    {
      "inputs": [],
      "name": "Maj__NameNotFound",
      "type": "error"
    },
    {
      "inputs": [],
      "name": "Maj__NameTaken",
      "type": "error"
    },
    {
      "anonymous": false,
      "inputs": [
        {
          "indexed": true,
          "internalType": "address",
          "name": "admin",
          "type": "address"
        },
        {
          "indexed": true,
          "internalType": "address",
          "name": "majContract",
          "type": "address"
        },
        {
          "indexed": false,
          "internalType": "bool",
          "name": "status",
          "type": "bool"
        }
      ],
      "name": "AdminStatusUpdated",
      "type": "event"
    },
    {
      "anonymous": false,
      "inputs": [
        {
          "indexed": true,
          "internalType": "address",
          "name": "majAddress",
          "type": "address"
        },
        {
          "indexed": false,
          "internalType": "address[]",
          "name": "_admins",
          "type": "address[]"
        },
        {
          "indexed": false,
          "internalType": "uint256",
          "name": "_sigsRequired",
          "type": "uint256"
        }
      ],
      "name": "MajDeployed",
      "type": "event"
    },
    {
      "stateMutability": "payable",
      "type": "fallback"
    },
    {
      "inputs": [
        {
          "internalType": "string",
          "name": "_name",
          "type": "string"
        },
        {
          "internalType": "address[]",
          "name": "_admins",
          "type": "address[]"
        },
        {
          "internalType": "uint256",
          "name": "_sigsRequired",
          "type": "uint256"
        }
      ],
      "name": "createMajContract",
      "outputs": [],
      "stateMutability": "nonpayable",
      "type": "function"
    },
    {
      "inputs": [
        {
          "internalType": "uint256",
          "name": "",
          "type": "uint256"
        }
      ],
      "name": "deployedContracts",
      "outputs": [
        {
          "internalType": "contract Maj",
          "name": "",
          "type": "address"
        }
      ],
      "stateMutability": "view",
      "type": "function"
    },
    {
      "inputs": [
        {
          "internalType": "address",
          "name": "_admin",
          "type": "address"
        }
      ],
      "name": "getAdminContracts",
      "outputs": [
        {
          "internalType": "address[]",
          "name": "",
          "type": "address[]"
        }
      ],
      "stateMutability": "view",
      "type": "function"
    },
    {
      "inputs": [],
      "name": "getDeployedMajList",
      "outputs": [
        {
          "internalType": "contract Maj[]",
          "name": "",
          "type": "address[]"
        }
      ],
      "stateMutability": "view",
      "type": "function"
    },
    {
      "inputs": [
        {
          "internalType": "string",
          "name": "_name",
          "type": "string"
        }
      ],
      "name": "getDeployedMajNames",
      "outputs": [
        {
          "internalType": "address",
          "name": "",
          "type": "address"
        }
      ],
      "stateMutability": "view",
      "type": "function"
    },
    {
      "inputs": [
        {
          "internalType": "address",
          "name": "_admin",
          "type": "address"
        }
      ],
      "name": "isAdminOfAny",
      "outputs": [
        {
          "internalType": "bool",
          "name": "",
          "type": "bool"
        }
      ],
      "stateMutability": "view",
      "type": "function"
    },
    {
      "inputs": [
        {
          "internalType": "string",
          "name": "",
          "type": "string"
        }
      ],
      "name": "isMajNameNotAvailable",
      "outputs": [
        {
          "internalType": "bool",
          "name": "",
          "type": "bool"
        }
      ],
      "stateMutability": "view",
      "type": "function"
    },
    {
      "inputs": [
        {
          "internalType": "address",
          "name": "_admin",
          "type": "address"
        },
        {
          "internalType": "address",
          "name": "_majContract",
          "type": "address"
        },
        {
          "internalType": "bool",
          "name": "_status",
          "type": "bool"
        }
      ],
      "name": "updateAdminStatus",
      "outputs": [],
      "stateMutability": "nonpayable",
      "type": "function"
    },
    {
      "stateMutability": "payable",
      "type": "receive"
    }
  ],
  "bytecode": "0x6080604052348015600f57600080fd5b506155538061001f6000396000f3fe60806040526004361061007f5760003560e01c80639f3254621161004e5780639f32546214610164578063a27f475b146101a1578063ea74dd54146101de578063f8404d271461020757610080565b80631e20163b146100825780635b8dc049146100bf5780639775efbe146100fc5780639ad1ee101461012757610080565b5b005b34801561008e57600080fd5b506100a960048036038101906100a49190610b8a565b610230565b6040516100b69190610bd2565b60405180910390f35b3480156100cb57600080fd5b506100e660048036038101906100e19190610d33565b61027e565b6040516100f39190610d8b565b60405180910390f35b34801561010857600080fd5b50610111610328565b60405161011e9190610eb4565b60405180910390f35b34801561013357600080fd5b5061014e60048036038101906101499190610f0c565b6103b6565b60405161015b9190610f48565b60405180910390f35b34801561017057600080fd5b5061018b60048036038101906101869190610b8a565b6103f5565b6040516101989190611021565b60405180910390f35b3480156101ad57600080fd5b506101c860048036038101906101c39190610d33565b6104c2565b6040516101d59190610bd2565b60405180910390f35b3480156101ea57600080fd5b506102056004803603810190610200919061106f565b6104f8565b005b34801561021357600080fd5b5061022e6004803603810190610229919061118a565b610849565b005b600080600360008473ffffffffffffffffffffffffffffffffffffffff1673ffffffffffffffffffffffffffffffffffffffff16815260200190815260200160002080549050119050919050565b60006002826040516102909190611286565b908152602001604051809103902060009054906101000a900460ff166102e2576040517f88d5aa7500000000000000000000000000000000000000000000000000000000815260040160405180910390fd5b6001826040516102f29190611286565b908152602001604051809103902060009054906101000a900473ffffffffffffffffffffffffffffffffffffffff169050919050565b606060008054806020026020016040519081016040528092919081815260200182805480156103ac57602002820191906000526020600020905b8160009054906101000a900473ffffffffffffffffffffffffffffffffffffffff1673ffffffffffffffffffffffffffffffffffffffff1681526020019060010190808311610362575b5050505050905090565b600081815481106103c657600080fd5b906000526020600020016000915054906101000a900473ffffffffffffffffffffffffffffffffffffffff1681565b6060600360008373ffffffffffffffffffffffffffffffffffffffff1673ffffffffffffffffffffffffffffffffffffffff1681526020019081526020016000208054806020026020016040519081016040528092919081815260200182805480156104b657602002820191906000526020600020905b8160009054906101000a900473ffffffffffffffffffffffffffffffffffffffff1673ffffffffffffffffffffffffffffffffffffffff168152602001906001019080831161046c575b50505050509050919050565b6002818051602081018201805184825260208301602085012081835280955050505050506000915054906101000a900460ff1681565b808061052f57508173ffffffffffffffffffffffffffffffffffffffff163373ffffffffffffffffffffffffffffffffffffffff16145b61056e576040517f08c379a0000000000000000000000000000000000000000000000000000000008152600401610565906112fa565b60405180910390fd5b801561061957600360008473ffffffffffffffffffffffffffffffffffffffff1673ffffffffffffffffffffffffffffffffffffffff168152602001908152602001600020829080600181540180825580915050600190039060005260206000200160009091909190916101000a81548173ffffffffffffffffffffffffffffffffffffffff021916908373ffffffffffffffffffffffffffffffffffffffff1602179055506107df565b6000600360008573ffffffffffffffffffffffffffffffffffffffff1673ffffffffffffffffffffffffffffffffffffffff168152602001908152602001600020905060005b81805490508110156107dc578373ffffffffffffffffffffffffffffffffffffffff168282815481106106955761069461131a565b5b9060005260206000200160009054906101000a900473ffffffffffffffffffffffffffffffffffffffff1673ffffffffffffffffffffffffffffffffffffffff16036107cf5781600183805490506106ed9190611378565b815481106106fe576106fd61131a565b5b9060005260206000200160009054906101000a900473ffffffffffffffffffffffffffffffffffffffff1682828154811061073c5761073b61131a565b5b9060005260206000200160006101000a81548173ffffffffffffffffffffffffffffffffffffffff021916908373ffffffffffffffffffffffffffffffffffffffff16021790555081805480610795576107946113ac565b5b6001900381819060005260206000200160006101000a81549073ffffffffffffffffffffffffffffffffffffffff021916905590556107dc565b808060010191505061065f565b50505b8173ffffffffffffffffffffffffffffffffffffffff168373ffffffffffffffffffffffffffffffffffffffff167f0e3b843867a3483b7bf8e99aafa3dc0338837668ba59ce3914cae6ac4f4728558360405161083c9190610bd2565b60405180910390a3505050565b6002836040516108599190611286565b908152602001604051809103902060009054906101000a900460ff16156108ac576040517f80c7f75500000000000000000000000000000000000000000000000000000000815260040160405180910390fd5b6000838383306040516108be90610b0b565b6108cb9493929190611444565b604051809103906000f0801580156108e7573d6000803e3d6000fd5b5090506000819080600181540180825580915050600190039060005260206000200160009091909190916101000a81548173ffffffffffffffffffffffffffffffffffffffff021916908373ffffffffffffffffffffffffffffffffffffffff160217905550600160028560405161095f9190611286565b908152602001604051809103902060006101000a81548160ff02191690831515021790555060005b8351811015610a5757600360008583815181106109a7576109a661131a565b5b602002602001015173ffffffffffffffffffffffffffffffffffffffff1673ffffffffffffffffffffffffffffffffffffffff168152602001908152602001600020829080600181540180825580915050600190039060005260206000200160009091909190916101000a81548173ffffffffffffffffffffffffffffffffffffffff021916908373ffffffffffffffffffffffffffffffffffffffff1602179055508080600101915050610987565b5080600185604051610a699190611286565b908152602001604051809103902060006101000a81548173ffffffffffffffffffffffffffffffffffffffff021916908373ffffffffffffffffffffffffffffffffffffffff1602179055508073ffffffffffffffffffffffffffffffffffffffff167f97ad8ce28965475c32a23c8e0a68b189cf43c1bdff4c736b5c860be2e37773298484604051610afd929190611497565b60405180910390a250505050565b614056806114c883390190565b6000604051905090565b600080fd5b600080fd5b600073ffffffffffffffffffffffffffffffffffffffff82169050919050565b6000610b5782610b2c565b9050919050565b610b6781610b4c565b8114610b7257600080fd5b50565b600081359050610b8481610b5e565b92915050565b600060208284031215610ba057610b9f610b22565b5b6000610bae84828501610b75565b91505092915050565b60008115159050919050565b610bcc81610bb7565b82525050565b6000602082019050610be76000830184610bc3565b92915050565b600080fd5b600080fd5b6000601f19601f8301169050919050565b7f4e487b7100000000000000000000000000000000000000000000000000000000600052604160045260246000fd5b610c4082610bf7565b810181811067ffffffffffffffff82111715610c5f57610c5e610c08565b5b80604052505050565b6000610c72610b18565b9050610c7e8282610c37565b919050565b600067ffffffffffffffff821115610c9e57610c9d610c08565b5b610ca782610bf7565b9050602081019050919050565b82818337600083830152505050565b6000610cd6610cd184610c83565b610c68565b905082815260208101848484011115610cf257610cf1610bf2565b5b610cfd848285610cb4565b509392505050565b600082601f830112610d1a57610d19610bed565b5b8135610d2a848260208601610cc3565b91505092915050565b600060208284031215610d4957610d48610b22565b5b600082013567ffffffffffffffff811115610d6757610d66610b27565b5b610d7384828501610d05565b91505092915050565b610d8581610b4c565b82525050565b6000602082019050610da06000830184610d7c565b92915050565b600081519050919050565b600082825260208201905092915050565b6000819050602082019050919050565b6000819050919050565b6000610df7610df2610ded84610b2c565b610dd2565b610b2c565b9050919050565b6000610e0982610ddc565b9050919050565b6000610e1b82610dfe565b9050919050565b610e2b81610e10565b82525050565b6000610e3d8383610e22565b60208301905092915050565b6000602082019050919050565b6000610e6182610da6565b610e6b8185610db1565b9350610e7683610dc2565b8060005b83811015610ea7578151610e8e8882610e31565b9750610e9983610e49565b925050600181019050610e7a565b5085935050505092915050565b60006020820190508181036000830152610ece8184610e56565b905092915050565b6000819050919050565b610ee981610ed6565b8114610ef457600080fd5b50565b600081359050610f0681610ee0565b92915050565b600060208284031215610f2257610f21610b22565b5b6000610f3084828501610ef7565b91505092915050565b610f4281610e10565b82525050565b6000602082019050610f5d6000830184610f39565b92915050565b600081519050919050565b600082825260208201905092915050565b6000819050602082019050919050565b610f9881610b4c565b82525050565b6000610faa8383610f8f565b60208301905092915050565b6000602082019050919050565b6000610fce82610f63565b610fd88185610f6e565b9350610fe383610f7f565b8060005b83811015611014578151610ffb8882610f9e565b975061100683610fb6565b925050600181019050610fe7565b5085935050505092915050565b6000602082019050818103600083015261103b8184610fc3565b905092915050565b61104c81610bb7565b811461105757600080fd5b50565b60008135905061106981611043565b92915050565b60008060006060848603121561108857611087610b22565b5b600061109686828701610b75565b93505060206110a786828701610b75565b92505060406110b88682870161105a565b9150509250925092565b600067ffffffffffffffff8211156110dd576110dc610c08565b5b602082029050602081019050919050565b600080fd5b6000611106611101846110c2565b610c68565b90508083825260208201905060208402830185811115611129576111286110ee565b5b835b81811015611152578061113e8882610b75565b84526020840193505060208101905061112b565b5050509392505050565b600082601f83011261117157611170610bed565b5b81356111818482602086016110f3565b91505092915050565b6000806000606084860312156111a3576111a2610b22565b5b600084013567ffffffffffffffff8111156111c1576111c0610b27565b5b6111cd86828701610d05565b935050602084013567ffffffffffffffff8111156111ee576111ed610b27565b5b6111fa8682870161115c565b925050604061120b86828701610ef7565b9150509250925092565b600081519050919050565b600081905092915050565b60005b8381101561124957808201518184015260208101905061122e565b60008484015250505050565b600061126082611215565b61126a8185611220565b935061127a81856020860161122b565b80840191505092915050565b60006112928284611255565b915081905092915050565b600082825260208201905092915050565b7f556e617574686f72697a65642075706461746500000000000000000000000000600082015250565b60006112e460138361129d565b91506112ef826112ae565b602082019050919050565b60006020820190508181036000830152611313816112d7565b9050919050565b7f4e487b7100000000000000000000000000000000000000000000000000000000600052603260045260246000fd5b7f4e487b7100000000000000000000000000000000000000000000000000000000600052601160045260246000fd5b600061138382610ed6565b915061138e83610ed6565b92508282039050818111156113a6576113a5611349565b5b92915050565b7f4e487b7100000000000000000000000000000000000000000000000000000000600052603160045260246000fd5b60006113e682611215565b6113f0818561129d565b935061140081856020860161122b565b61140981610bf7565b840191505092915050565b61141d81610ed6565b82525050565b600061142e82610b2c565b9050919050565b61143e81611423565b82525050565b6000608082019050818103600083015261145e81876113db565b905081810360208301526114728186610fc3565b90506114816040830185611414565b61148e6060830184611435565b95945050505050565b600060408201905081810360008301526114b18185610fc3565b90506114c06020830184611414565b939250505056fe608060405234801561001057600080fd5b50604051614056380380614056833981810160405281019061003291906105f2565b80600560006101000a81548173ffffffffffffffffffffffffffffffffffffffff021916908373ffffffffffffffffffffffffffffffffffffffff16021790555060005b83518110156100b3576100a884828151811061009557610094610691565b5b602002602001015161012960201b60201c565b806001019050610076565b50600282101580156100ca57506002805490508211155b610109576040517f08c379a00000000000000000000000000000000000000000000000000000000081526004016101009061071d565b60405180910390fd5b81600181905550836000908161011f9190610954565b5050505050610afe565b600360008273ffffffffffffffffffffffffffffffffffffffff1673ffffffffffffffffffffffffffffffffffffffff16815260200190815260200160002060009054906101000a900460ff16156101b6576040517f08c379a00000000000000000000000000000000000000000000000000000000081526004016101ad90610a72565b60405180910390fd5b600073ffffffffffffffffffffffffffffffffffffffff168173ffffffffffffffffffffffffffffffffffffffff1603610225576040517f08c379a000000000000000000000000000000000000000000000000000000000815260040161021c90610ade565b60405180910390fd5b6002819080600181540180825580915050600190039060005260206000200160009091909190916101000a81548173ffffffffffffffffffffffffffffffffffffffff021916908373ffffffffffffffffffffffffffffffffffffffff1602179055506001600360008373ffffffffffffffffffffffffffffffffffffffff1673ffffffffffffffffffffffffffffffffffffffff16815260200190815260200160002060006101000a81548160ff02191690831515021790555050565b6000604051905090565b600080fd5b600080fd5b600080fd5b600080fd5b6000601f19601f8301169050919050565b7f4e487b7100000000000000000000000000000000000000000000000000000000600052604160045260246000fd5b61034a82610301565b810181811067ffffffffffffffff8211171561036957610368610312565b5b80604052505050565b600061037c6102e3565b90506103888282610341565b919050565b600067ffffffffffffffff8211156103a8576103a7610312565b5b6103b182610301565b9050602081019050919050565b60005b838110156103dc5780820151818401526020810190506103c1565b60008484015250505050565b60006103fb6103f68461038d565b610372565b905082815260208101848484011115610417576104166102fc565b5b6104228482856103be565b509392505050565b600082601f83011261043f5761043e6102f7565b5b815161044f8482602086016103e8565b91505092915050565b600067ffffffffffffffff82111561047357610472610312565b5b602082029050602081019050919050565b600080fd5b600073ffffffffffffffffffffffffffffffffffffffff82169050919050565b60006104b482610489565b9050919050565b6104c4816104a9565b81146104cf57600080fd5b50565b6000815190506104e1816104bb565b92915050565b60006104fa6104f584610458565b610372565b9050808382526020820190506020840283018581111561051d5761051c610484565b5b835b81811015610546578061053288826104d2565b84526020840193505060208101905061051f565b5050509392505050565b600082601f830112610565576105646102f7565b5b81516105758482602086016104e7565b91505092915050565b6000819050919050565b6105918161057e565b811461059c57600080fd5b50565b6000815190506105ae81610588565b92915050565b60006105bf82610489565b9050919050565b6105cf816105b4565b81146105da57600080fd5b50565b6000815190506105ec816105c6565b92915050565b6000806000806080858703121561060c5761060b6102ed565b5b600085015167ffffffffffffffff81111561062a576106296102f2565b5b6106368782880161042a565b945050602085015167ffffffffffffffff811115610657576106566102f2565b5b61066387828801610550565b93505060406106748782880161059f565b9250506060610685878288016105dd565b91505092959194509250565b7f4e487b7100000000000000000000000000000000000000000000000000000000600052603260045260246000fd5b600082825260208201905092915050565b7f496e76616c6964207369676e617475726520636f756e74000000000000000000600082015250565b60006107076017836106c0565b9150610712826106d1565b602082019050919050565b60006020820190508181036000830152610736816106fa565b9050919050565b600081519050919050565b7f4e487b7100000000000000000000000000000000000000000000000000000000600052602260045260246000fd5b6000600282049050600182168061078f57607f821691505b6020821081036107a2576107a1610748565b5b50919050565b60008190508160005260206000209050919050565b60006020601f8301049050919050565b600082821b905092915050565b60006008830261080a7fffffffffffffffffffffffffffffffffffffffffffffffffffffffffffffffff826107cd565b61081486836107cd565b95508019841693508086168417925050509392505050565b6000819050919050565b600061085161084c6108478461057e565b61082c565b61057e565b9050919050565b6000819050919050565b61086b83610836565b61087f61087782610858565b8484546107da565b825550505050565b600090565b610894610887565b61089f818484610862565b505050565b5b818110156108c3576108b860008261088c565b6001810190506108a5565b5050565b601f821115610908576108d9816107a8565b6108e2846107bd565b810160208510156108f1578190505b6109056108fd856107bd565b8301826108a4565b50505b505050565b600082821c905092915050565b600061092b6000198460080261090d565b1980831691505092915050565b6000610944838361091a565b9150826002028217905092915050565b61095d8261073d565b67ffffffffffffffff81111561097657610975610312565b5b6109808254610777565b61098b8282856108c7565b600060209050601f8311600181146109be57600084156109ac578287015190505b6109b68582610938565b865550610a1e565b601f1984166109cc866107a8565b60005b828110156109f4578489015182556001820191506020850194506020810190506109cf565b86831015610a115784890151610a0d601f89168261091a565b8355505b6001600288020188555050505b505050505050565b7f4d616a5f5f4475706c696361746541646d696e41646472657373000000000000600082015250565b6000610a5c601a836106c0565b9150610a6782610a26565b602082019050919050565b60006020820190508181036000830152610a8b81610a4f565b9050919050565b7f4d616a5f5f5a65726f4164647265737300000000000000000000000000000000600082015250565b6000610ac86010836106c0565b9150610ad382610a92565b602082019050919050565b60006020820190508181036000830152610af781610abb565b9050919050565b61354980610b0d6000396000f3fe6080604052600436106101235760003560e01c80635d9ec210116100a0578063c3cc2b6b11610064578063c3cc2b6b146103f7578063ce757d2914610422578063eb91e6511461044d578063ee22610b14610476578063fe575a871461049f57610124565b80635d9ec210146103025780635e90852d1461032b57806370480275146103685780639c037c3c146103915780639cfe42da146103ce57610124565b806331ae450b116100e757806331ae450b1461021d5780633380c0d81461024857806333ea3dc8146102715780633da1f79a146102ae5780634cf32de3146102d757610124565b806314bfd6d0146101265780631785f53c1461016357806324d7806c1461018c57806327506f53146101c9578063297b4c2c146101f457610124565b5b005b34801561013257600080fd5b5061014d600480360381019061014891906125b4565b6104dc565b60405161015a9190612622565b60405180910390f35b34801561016f57600080fd5b5061018a60048036038101906101859190612669565b61051b565b005b34801561019857600080fd5b506101b360048036038101906101ae9190612669565b6108fc565b6040516101c091906126b1565b60405180910390f35b3480156101d557600080fd5b506101de61091c565b6040516101eb9190612903565b60405180910390f35b34801561020057600080fd5b5061021b600480360381019061021691906125b4565b610b16565b005b34801561022957600080fd5b50610232610bd4565b60405161023f91906129d4565b60405180910390f35b34801561025457600080fd5b5061026f600480360381019061026a91906125b4565b610c62565b005b34801561027d57600080fd5b50610298600480360381019061029391906125b4565b610e57565b6040516102a59190612a92565b60405180910390f35b3480156102ba57600080fd5b506102d560048036038101906102d091906125b4565b61102e565b005b3480156102e357600080fd5b506102ec6112c8565b6040516102f99190612ac3565b60405180910390f35b34801561030e57600080fd5b50610329600480360381019061032491906125b4565b6112d5565b005b34801561033757600080fd5b50610352600480360381019061034d9190612b43565b611597565b60405161035f9190612ac3565b60405180910390f35b34801561037457600080fd5b5061038f600480360381019061038a9190612669565b61169f565b005b34801561039d57600080fd5b506103b860048036038101906103b39190612bb7565b6117d9565b6040516103c591906126b1565b60405180910390f35b3480156103da57600080fd5b506103f560048036038101906103f09190612669565b611841565b005b34801561040357600080fd5b5061040c611901565b6040516104199190612c4c565b60405180910390f35b34801561042e57600080fd5b5061043761198f565b6040516104449190612ac3565b60405180910390f35b34801561045957600080fd5b50610474600480360381019061046f9190612669565b611995565b005b34801561048257600080fd5b5061049d600480360381019061049891906125b4565b611a55565b005b3480156104ab57600080fd5b506104c660048036038101906104c19190612669565b611d30565b6040516104d391906126b1565b60405180910390f35b600281815481106104ec57600080fd5b906000526020600020016000915054906101000a900473ffffffffffffffffffffffffffffffffffffffff1681565b3073ffffffffffffffffffffffffffffffffffffffff163373ffffffffffffffffffffffffffffffffffffffff1614610580576040517fd8fe736400000000000000000000000000000000000000000000000000000000815260040160405180910390fd5b600360008273ffffffffffffffffffffffffffffffffffffffff1673ffffffffffffffffffffffffffffffffffffffff16815260200190815260200160002060009054906101000a900460ff1661060c576040517f08c379a000000000000000000000000000000000000000000000000000000000815260040161060390612cba565b60405180910390fd5b6002808054905011610653576040517f08c379a000000000000000000000000000000000000000000000000000000000815260040161064a90612d26565b60405180910390fd5b6000600360008373ffffffffffffffffffffffffffffffffffffffff1673ffffffffffffffffffffffffffffffffffffffff16815260200190815260200160002060006101000a81548160ff02191690831515021790555060005b60028054905081101561082f578173ffffffffffffffffffffffffffffffffffffffff16600282815481106106e6576106e5612d46565b5b9060005260206000200160009054906101000a900473ffffffffffffffffffffffffffffffffffffffff1673ffffffffffffffffffffffffffffffffffffffff160361082457600260016002805490506107409190612da4565b8154811061075157610750612d46565b5b9060005260206000200160009054906101000a900473ffffffffffffffffffffffffffffffffffffffff16600282815481106107905761078f612d46565b5b9060005260206000200160006101000a81548173ffffffffffffffffffffffffffffffffffffffff021916908373ffffffffffffffffffffffffffffffffffffffff16021790555060028054806107ea576107e9612dd8565b5b6001900381819060005260206000200160006101000a81549073ffffffffffffffffffffffffffffffffffffffff0219169055905561082f565b8060010190506106ae565b50600560009054906101000a900473ffffffffffffffffffffffffffffffffffffffff1673ffffffffffffffffffffffffffffffffffffffff1663ea74dd54823060006040518463ffffffff1660e01b815260040161089093929190612e07565b600060405180830381600087803b1580156108aa57600080fd5b505af11580156108be573d6000803e3d6000fd5b505050507fa3b62bc36326052d97ea62d63c3d60308ed4c3ea8ac079dd8499f1e9c4f80c0f816040516108f19190612622565b60405180910390a150565b60036020528060005260406000206000915054906101000a900460ff1681565b60606006805480602002602001604051908101604052809291908181526020016000905b82821015610b0d57838290600052602060002090600402016040518060e00160405290816000820160009054906101000a900473ffffffffffffffffffffffffffffffffffffffff1673ffffffffffffffffffffffffffffffffffffffff1673ffffffffffffffffffffffffffffffffffffffff168152602001600182015481526020016002820180546109d390612e6d565b80601f01602080910402602001604051908101604052809291908181526020018280546109ff90612e6d565b8015610a4c5780601f10610a2157610100808354040283529160200191610a4c565b820191906000526020600020905b815481529060010190602001808311610a2f57829003601f168201915b505050505081526020016003820160009054906101000a900473ffffffffffffffffffffffffffffffffffffffff1673ffffffffffffffffffffffffffffffffffffffff1673ffffffffffffffffffffffffffffffffffffffff1681526020016003820160149054906101000a900460ff161515151581526020016003820160159054906101000a900460ff161515151581526020016003820160169054906101000a900460ff1660ff1660ff168152505081526020019060010190610940565b50505050905090565b3073ffffffffffffffffffffffffffffffffffffffff163373ffffffffffffffffffffffffffffffffffffffff1614610b7b576040517fd8fe736400000000000000000000000000000000000000000000000000000000815260040160405180910390fd5b610b8a81600280549050611d50565b610b9357600080fd5b806001819055507f6e78f9709a40d80cb630566b78e588dc218d3e1f648faf3ef910f7d11fa5271381604051610bc99190612ac3565b60405180910390a150565b60606002805480602002602001604051908101604052809291908181526020018280548015610c5857602002820191906000526020600020905b8160009054906101000a900473ffffffffffffffffffffffffffffffffffffffff1673ffffffffffffffffffffffffffffffffffffffff1681526020019060010190808311610c0e575b5050505050905090565b600360003373ffffffffffffffffffffffffffffffffffffffff1673ffffffffffffffffffffffffffffffffffffffff16815260200190815260200160002060009054906101000a900460ff16610ce5576040517f99cd33e800000000000000000000000000000000000000000000000000000000815260040160405180910390fd5b8060068181548110610cfa57610cf9612d46565b5b906000526020600020906004020160030160149054906101000a900460ff16610d4f576040517f9de49fbb00000000000000000000000000000000000000000000000000000000815260040160405180910390fd5b600060068381548110610d6557610d64612d46565b5b906000526020600020906004020190508060030160009054906101000a900473ffffffffffffffffffffffffffffffffffffffff1673ffffffffffffffffffffffffffffffffffffffff163373ffffffffffffffffffffffffffffffffffffffff1614610dfe576040517f5c3bab9500000000000000000000000000000000000000000000000000000000815260040160405180910390fd5b60008160030160146101000a81548160ff0219169083151502179055507f956fb32199d8b882b2039a14e1be35ab14f7a80b9089fc223f14b43937173e6083604051610e4a9190612ac3565b60405180910390a1505050565b610e5f612504565b60068281548110610e7357610e72612d46565b5b90600052602060002090600402016040518060e00160405290816000820160009054906101000a900473ffffffffffffffffffffffffffffffffffffffff1673ffffffffffffffffffffffffffffffffffffffff1673ffffffffffffffffffffffffffffffffffffffff16815260200160018201548152602001600282018054610efc90612e6d565b80601f0160208091040260200160405190810160405280929190818152602001828054610f2890612e6d565b8015610f755780601f10610f4a57610100808354040283529160200191610f75565b820191906000526020600020905b815481529060010190602001808311610f5857829003601f168201915b505050505081526020016003820160009054906101000a900473ffffffffffffffffffffffffffffffffffffffff1673ffffffffffffffffffffffffffffffffffffffff1673ffffffffffffffffffffffffffffffffffffffff1681526020016003820160149054906101000a900460ff161515151581526020016003820160159054906101000a900460ff161515151581526020016003820160169054906101000a900460ff1660ff1660ff16815250509050919050565b600360003373ffffffffffffffffffffffffffffffffffffffff1673ffffffffffffffffffffffffffffffffffffffff16815260200190815260200160002060009054906101000a900460ff166110b1576040517f99cd33e800000000000000000000000000000000000000000000000000000000815260040160405180910390fd5b80600681815481106110c6576110c5612d46565b5b906000526020600020906004020160030160149054906101000a900460ff1661111b576040517f9de49fbb00000000000000000000000000000000000000000000000000000000815260040160405180910390fd5b6007600083815260200190815260200160002060003373ffffffffffffffffffffffffffffffffffffffff1673ffffffffffffffffffffffffffffffffffffffff16815260200190815260200160002060009054906101000a900460ff166111af576040517f6e3cca2c00000000000000000000000000000000000000000000000000000000815260040160405180910390fd5b6000600683815481106111c5576111c4612d46565b5b9060005260206000209060040201905060018160030160168282829054906101000a900460ff166111f69190612e9e565b92506101000a81548160ff021916908360ff16021790555060006007600085815260200190815260200160002060003373ffffffffffffffffffffffffffffffffffffffff1673ffffffffffffffffffffffffffffffffffffffff16815260200190815260200160002060006101000a81548160ff0219169083151502179055507ffbbda019ddace25510873f2cf5073cc1895af4dace5fa94e134007a4a329c52083338360030160169054906101000a900460ff166040516112bb93929190612f0e565b60405180910390a1505050565b6000600680549050905090565b600360003373ffffffffffffffffffffffffffffffffffffffff1673ffffffffffffffffffffffffffffffffffffffff16815260200190815260200160002060009054906101000a900460ff16611358576040517f99cd33e800000000000000000000000000000000000000000000000000000000815260040160405180910390fd5b806006818154811061136d5761136c612d46565b5b906000526020600020906004020160030160149054906101000a900460ff166113c2576040517f9de49fbb00000000000000000000000000000000000000000000000000000000815260040160405180910390fd5b6007600083815260200190815260200160002060003373ffffffffffffffffffffffffffffffffffffffff1673ffffffffffffffffffffffffffffffffffffffff16815260200190815260200160002060009054906101000a900460ff1615611457576040517fa26f644c00000000000000000000000000000000000000000000000000000000815260040160405180910390fd5b60006006838154811061146d5761146c612d46565b5b9060005260206000209060040201905060018160030160168282829054906101000a900460ff1661149e9190612f45565b92506101000a81548160ff021916908360ff16021790555060016007600085815260200190815260200160002060003373ffffffffffffffffffffffffffffffffffffffff1673ffffffffffffffffffffffffffffffffffffffff16815260200190815260200160002060006101000a81548160ff0219169083151502179055507fb95f07364e4e3a5387406f8a67472b438bab34160ed31971d0bf57bd119fa58b83338360030160169054906101000a900460ff1660405161156393929190612f0e565b60405180910390a16001548160030160169054906101000a900460ff1660ff16106115925761159183611a55565b5b505050565b6000600460003373ffffffffffffffffffffffffffffffffffffffff1673ffffffffffffffffffffffffffffffffffffffff16815260200190815260200160002060009054906101000a900460ff161561161d576040517f99cd33e800000000000000000000000000000000000000000000000000000000815260040160405180910390fd5b6000600360003373ffffffffffffffffffffffffffffffffffffffff1673ffffffffffffffffffffffffffffffffffffffff16815260200190815260200160002060009054906101000a900460ff16156116845761167d86868686611dd1565b9050611693565b611690868686866120d4565b90505b80915050949350505050565b3073ffffffffffffffffffffffffffffffffffffffff163373ffffffffffffffffffffffffffffffffffffffff1614611704576040517fd8fe736400000000000000000000000000000000000000000000000000000000815260040160405180910390fd5b61170d8161234a565b600560009054906101000a900473ffffffffffffffffffffffffffffffffffffffff1673ffffffffffffffffffffffffffffffffffffffff1663ea74dd54823060016040518463ffffffff1660e01b815260040161176d93929190612e07565b600060405180830381600087803b15801561178757600080fd5b505af115801561179b573d6000803e3d6000fd5b505050507f44d6d25963f097ad14f29f06854a01f575648a1ef82f30e562ccd3889717e339816040516117ce9190612622565b60405180910390a150565b60006007600084815260200190815260200160002060008373ffffffffffffffffffffffffffffffffffffffff1673ffffffffffffffffffffffffffffffffffffffff16815260200190815260200160002060009054906101000a900460ff16905092915050565b3073ffffffffffffffffffffffffffffffffffffffff163373ffffffffffffffffffffffffffffffffffffffff16146118a6576040517fd8fe736400000000000000000000000000000000000000000000000000000000815260040160405180910390fd5b6001600460008373ffffffffffffffffffffffffffffffffffffffff1673ffffffffffffffffffffffffffffffffffffffff16815260200190815260200160002060006101000a81548160ff02191690831515021790555050565b6000805461190e90612e6d565b80601f016020809104026020016040519081016040528092919081815260200182805461193a90612e6d565b80156119875780601f1061195c57610100808354040283529160200191611987565b820191906000526020600020905b81548152906001019060200180831161196a57829003601f168201915b505050505081565b60015481565b3073ffffffffffffffffffffffffffffffffffffffff163373ffffffffffffffffffffffffffffffffffffffff16146119fa576040517fd8fe736400000000000000000000000000000000000000000000000000000000815260040160405180910390fd5b6000600460008373ffffffffffffffffffffffffffffffffffffffff1673ffffffffffffffffffffffffffffffffffffffff16815260200190815260200160002060006101000a81548160ff02191690831515021790555050565b600360003373ffffffffffffffffffffffffffffffffffffffff1673ffffffffffffffffffffffffffffffffffffffff16815260200190815260200160002060009054906101000a900460ff16611ad8576040517f99cd33e800000000000000000000000000000000000000000000000000000000815260040160405180910390fd5b8060068181548110611aed57611aec612d46565b5b906000526020600020906004020160030160149054906101000a900460ff16611b42576040517f9de49fbb00000000000000000000000000000000000000000000000000000000815260040160405180910390fd5b600060068381548110611b5857611b57612d46565b5b906000526020600020906004020190506001548160030160169054906101000a900460ff1660ff161015611bb8576040517ffb0ddcf300000000000000000000000000000000000000000000000000000000815260040160405180910390fd5b60018160030160156101000a81548160ff02191690831515021790555060008160030160146101000a81548160ff02191690831515021790555060008160000160009054906101000a900473ffffffffffffffffffffffffffffffffffffffff1673ffffffffffffffffffffffffffffffffffffffff16826001015483600201604051611c45919061301d565b60006040518083038185875af1925050503d8060008114611c82576040519150601f19603f3d011682016040523d82523d6000602084013e611c87565b606091505b5050905080611cc2576040517f2709e3a300000000000000000000000000000000000000000000000000000000815260040160405180910390fd5b7f45c6e1a61292af28e0360dcf7b4c16a9143c6a4e968a38ecd0fd26cac72e06ca848360000160009054906101000a900473ffffffffffffffffffffffffffffffffffffffff16846001015485600201604051611d2294939291906130c9565b60405180910390a150505050565b60046020528060005260406000206000915054906101000a900460ff1681565b600081831115611d8c576040517f92d4f8d400000000000000000000000000000000000000000000000000000000815260040160405180910390fd5b6002831015611dc7576040517ff1da3bd800000000000000000000000000000000000000000000000000000000815260040160405180910390fd5b6001905092915050565b6000600360003373ffffffffffffffffffffffffffffffffffffffff1673ffffffffffffffffffffffffffffffffffffffff16815260200190815260200160002060009054906101000a900460ff16611e56576040517f99cd33e800000000000000000000000000000000000000000000000000000000815260040160405180910390fd5b60006006805490509050611e68612504565b86816000019073ffffffffffffffffffffffffffffffffffffffff16908173ffffffffffffffffffffffffffffffffffffffff16815250508581602001818152505084848080601f016020809104026020016040519081016040528093929190818152602001838380828437600081840152601f19601f82011690508083019250505050505050816040018190525033816060019073ffffffffffffffffffffffffffffffffffffffff16908173ffffffffffffffffffffffffffffffffffffffff16815250506001816080019015159081151581525050600681908060018154018082558091505060019003906000526020600020906004020160009091909190915060008201518160000160006101000a81548173ffffffffffffffffffffffffffffffffffffffff021916908373ffffffffffffffffffffffffffffffffffffffff160217905550602082015181600101556040820151816002019081611fd291906132d1565b5060608201518160030160006101000a81548173ffffffffffffffffffffffffffffffffffffffff021916908373ffffffffffffffffffffffffffffffffffffffff16021790555060808201518160030160146101000a81548160ff02191690831515021790555060a08201518160030160156101000a81548160ff02191690831515021790555060c08201518160030160166101000a81548160ff021916908360ff16021790555050507fea4cdd707cb86aeeedc1ff98b5ff3ea7bb0f679aba24ae60449cf09452c2c64d8288888888336040516120b6969594939291906133df565b60405180910390a16120c7826112d5565b8192505050949350505050565b60008060068054905090506120e7612504565b86816000019073ffffffffffffffffffffffffffffffffffffffff16908173ffffffffffffffffffffffffffffffffffffffff16815250508581602001818152505084848080601f016020809104026020016040519081016040528093929190818152602001838380828437600081840152601f19601f82011690508083019250505050505050816040018190525033816060019073ffffffffffffffffffffffffffffffffffffffff16908173ffffffffffffffffffffffffffffffffffffffff16815250506001816080019015159081151581525050600681908060018154018082558091505060019003906000526020600020906004020160009091909190915060008201518160000160006101000a81548173ffffffffffffffffffffffffffffffffffffffff021916908373ffffffffffffffffffffffffffffffffffffffff16021790555060208201518160010155604082015181600201908161225191906132d1565b5060608201518160030160006101000a81548173ffffffffffffffffffffffffffffffffffffffff021916908373ffffffffffffffffffffffffffffffffffffffff16021790555060808201518160030160146101000a81548160ff02191690831515021790555060a08201518160030160156101000a81548160ff02191690831515021790555060c08201518160030160166101000a81548160ff021916908360ff16021790555050507fea4cdd707cb86aeeedc1ff98b5ff3ea7bb0f679aba24ae60449cf09452c2c64d828888888833604051612335969594939291906133df565b60405180910390a18192505050949350505050565b600360008273ffffffffffffffffffffffffffffffffffffffff1673ffffffffffffffffffffffffffffffffffffffff16815260200190815260200160002060009054906101000a900460ff16156123d7576040517f08c379a00000000000000000000000000000000000000000000000000000000081526004016123ce90613487565b60405180910390fd5b600073ffffffffffffffffffffffffffffffffffffffff168173ffffffffffffffffffffffffffffffffffffffff1603612446576040517f08c379a000000000000000000000000000000000000000000000000000000000815260040161243d906134f3565b60405180910390fd5b6002819080600181540180825580915050600190039060005260206000200160009091909190916101000a81548173ffffffffffffffffffffffffffffffffffffffff021916908373ffffffffffffffffffffffffffffffffffffffff1602179055506001600360008373ffffffffffffffffffffffffffffffffffffffff1673ffffffffffffffffffffffffffffffffffffffff16815260200190815260200160002060006101000a81548160ff02191690831515021790555050565b6040518060e00160405280600073ffffffffffffffffffffffffffffffffffffffff1681526020016000815260200160608152602001600073ffffffffffffffffffffffffffffffffffffffff168152602001600015158152602001600015158152602001600060ff1681525090565b600080fd5b600080fd5b6000819050919050565b6125918161257e565b811461259c57600080fd5b50565b6000813590506125ae81612588565b92915050565b6000602082840312156125ca576125c9612574565b5b60006125d88482850161259f565b91505092915050565b600073ffffffffffffffffffffffffffffffffffffffff82169050919050565b600061260c826125e1565b9050919050565b61261c81612601565b82525050565b60006020820190506126376000830184612613565b92915050565b61264681612601565b811461265157600080fd5b50565b6000813590506126638161263d565b92915050565b60006020828403121561267f5761267e612574565b5b600061268d84828501612654565b91505092915050565b60008115159050919050565b6126ab81612696565b82525050565b60006020820190506126c660008301846126a2565b92915050565b600081519050919050565b600082825260208201905092915050565b6000819050602082019050919050565b61270181612601565b82525050565b6127108161257e565b82525050565b600081519050919050565b600082825260208201905092915050565b60005b83811015612750578082015181840152602081019050612735565b60008484015250505050565b6000601f19601f8301169050919050565b600061277882612716565b6127828185612721565b9350612792818560208601612732565b61279b8161275c565b840191505092915050565b6127af81612696565b82525050565b600060ff82169050919050565b6127cb816127b5565b82525050565b600060e0830160008301516127e960008601826126f8565b5060208301516127fc6020860182612707565b5060408301518482036040860152612814828261276d565b915050606083015161282960608601826126f8565b50608083015161283c60808601826127a6565b5060a083015161284f60a08601826127a6565b5060c083015161286260c08601826127c2565b508091505092915050565b600061287983836127d1565b905092915050565b6000602082019050919050565b6000612899826126cc565b6128a381856126d7565b9350836020820285016128b5856126e8565b8060005b858110156128f157848403895281516128d2858261286d565b94506128dd83612881565b925060208a019950506001810190506128b9565b50829750879550505050505092915050565b6000602082019050818103600083015261291d818461288e565b905092915050565b600081519050919050565b600082825260208201905092915050565b6000819050602082019050919050565b600061295d83836126f8565b60208301905092915050565b6000602082019050919050565b600061298182612925565b61298b8185612930565b935061299683612941565b8060005b838110156129c75781516129ae8882612951565b97506129b983612969565b92505060018101905061299a565b5085935050505092915050565b600060208201905081810360008301526129ee8184612976565b905092915050565b600060e083016000830151612a0e60008601826126f8565b506020830151612a216020860182612707565b5060408301518482036040860152612a39828261276d565b9150506060830151612a4e60608601826126f8565b506080830151612a6160808601826127a6565b5060a0830151612a7460a08601826127a6565b5060c0830151612a8760c08601826127c2565b508091505092915050565b60006020820190508181036000830152612aac81846129f6565b905092915050565b612abd8161257e565b82525050565b6000602082019050612ad86000830184612ab4565b92915050565b600080fd5b600080fd5b600080fd5b60008083601f840112612b0357612b02612ade565b5b8235905067ffffffffffffffff811115612b2057612b1f612ae3565b5b602083019150836001820283011115612b3c57612b3b612ae8565b5b9250929050565b60008060008060608587031215612b5d57612b5c612574565b5b6000612b6b87828801612654565b9450506020612b7c8782880161259f565b935050604085013567ffffffffffffffff811115612b9d57612b9c612579565b5b612ba987828801612aed565b925092505092959194509250565b60008060408385031215612bce57612bcd612574565b5b6000612bdc8582860161259f565b9250506020612bed85828601612654565b9150509250929050565b600081519050919050565b600082825260208201905092915050565b6000612c1e82612bf7565b612c288185612c02565b9350612c38818560208601612732565b612c418161275c565b840191505092915050565b60006020820190508181036000830152612c668184612c13565b905092915050565b7f4d616a5f5f4164647265737349734e6f7441646d696e00000000000000000000600082015250565b6000612ca4601683612c02565b9150612caf82612c6e565b602082019050919050565b60006020820190508181036000830152612cd381612c97565b9050919050565b7f4d616a5f5f54776f41646d696e4d696e696d756d000000000000000000000000600082015250565b6000612d10601483612c02565b9150612d1b82612cda565b602082019050919050565b60006020820190508181036000830152612d3f81612d03565b9050919050565b7f4e487b7100000000000000000000000000000000000000000000000000000000600052603260045260246000fd5b7f4e487b7100000000000000000000000000000000000000000000000000000000600052601160045260246000fd5b6000612daf8261257e565b9150612dba8361257e565b9250828203905081811115612dd257612dd1612d75565b5b92915050565b7f4e487b7100000000000000000000000000000000000000000000000000000000600052603160045260246000fd5b6000606082019050612e1c6000830186612613565b612e296020830185612613565b612e3660408301846126a2565b949350505050565b7f4e487b7100000000000000000000000000000000000000000000000000000000600052602260045260246000fd5b60006002820490506001821680612e8557607f821691505b602082108103612e9857612e97612e3e565b5b50919050565b6000612ea9826127b5565b9150612eb4836127b5565b9250828203905060ff811115612ecd57612ecc612d75565b5b92915050565b6000819050919050565b6000612ef8612ef3612eee846127b5565b612ed3565b61257e565b9050919050565b612f0881612edd565b82525050565b6000606082019050612f236000830186612ab4565b612f306020830185612613565b612f3d6040830184612eff565b949350505050565b6000612f50826127b5565b9150612f5b836127b5565b9250828201905060ff811115612f7457612f73612d75565b5b92915050565b600081905092915050565b60008190508160005260206000209050919050565b60008154612fa781612e6d565b612fb18186612f7a565b94506001821660008114612fcc5760018114612fe157613014565b60ff1983168652811515820286019350613014565b612fea85612f85565b60005b8381101561300c57815481890152600182019150602081019050612fed565b838801955050505b50505092915050565b60006130298284612f9a565b915081905092915050565b600082825260208201905092915050565b6000815461305281612e6d565b61305c8186613034565b94506001821660008114613077576001811461308d576130c0565b60ff1983168652811515602002860193506130c0565b61309685612f85565b60005b838110156130b857815481890152600182019150602081019050613099565b808801955050505b50505092915050565b60006080820190506130de6000830187612ab4565b6130eb6020830186612613565b6130f86040830185612ab4565b818103606083015261310a8184613045565b905095945050505050565b7f4e487b7100000000000000000000000000000000000000000000000000000000600052604160045260246000fd5b60006020601f8301049050919050565b600082821b905092915050565b6000600883026131917fffffffffffffffffffffffffffffffffffffffffffffffffffffffffffffffff82613154565b61319b8683613154565b95508019841693508086168417925050509392505050565b60006131ce6131c96131c48461257e565b612ed3565b61257e565b9050919050565b6000819050919050565b6131e8836131b3565b6131fc6131f4826131d5565b848454613161565b825550505050565b600090565b613211613204565b61321c8184846131df565b505050565b5b8181101561324057613235600082613209565b600181019050613222565b5050565b601f8211156132855761325681612f85565b61325f84613144565b8101602085101561326e578190505b61328261327a85613144565b830182613221565b50505b505050565b600082821c905092915050565b60006132a86000198460080261328a565b1980831691505092915050565b60006132c18383613297565b9150826002028217905092915050565b6132da82612716565b67ffffffffffffffff8111156132f3576132f2613115565b5b6132fd8254612e6d565b613308828285613244565b600060209050601f83116001811461333b5760008415613329578287015190505b61333385826132b5565b86555061339b565b601f19841661334986612f85565b60005b828110156133715784890151825560018201915060208501945060208101905061334c565b8683101561338e578489015161338a601f891682613297565b8355505b6001600288020188555050505b505050505050565b82818337600083830152505050565b60006133be8385613034565b93506133cb8385846133a3565b6133d48361275c565b840190509392505050565b600060a0820190506133f46000830189612ab4565b6134016020830188612613565b61340e6040830187612ab4565b81810360608301526134218185876133b2565b90506134306080830184612613565b979650505050505050565b7f4d616a5f5f4475706c696361746541646d696e41646472657373000000000000600082015250565b6000613471601a83612c02565b915061347c8261343b565b602082019050919050565b600060208201905081810360008301526134a081613464565b9050919050565b7f4d616a5f5f5a65726f4164647265737300000000000000000000000000000000600082015250565b60006134dd601083612c02565b91506134e8826134a7565b602082019050919050565b6000602082019050818103600083015261350c816134d0565b905091905056fea264697066735822122056bdf88e9db0a32c0dfd0931984f518792bd97b85480638b73fde7711950ec8d64736f6c634300081c0033a264697066735822122071cfdeb5c98478f9c83c6cc4d55f5259d5dfa169bcdeb16b2ed84b002ad9d98a64736f6c634300081c0033",
  "linkReferences": {},
  "deployedLinkReferences": {}
}